{
  "_format": "hh-sol-artifact-1",
  "contractName": "MasterChef",
  "sourceName": "contracts/sushi/MasterChef.sol",
  "abi": [
    {
      "inputs": [
        {
          "internalType": "contract SushiToken",
          "name": "_sushi",
          "type": "address"
        },
        {
          "internalType": "address",
          "name": "_devaddr",
          "type": "address"
        },
        {
          "internalType": "uint256",
          "name": "_sushiPerBlock",
          "type": "uint256"
        },
        {
          "internalType": "uint256",
          "name": "_startBlock",
          "type": "uint256"
        },
        {
          "internalType": "uint256",
          "name": "_bonusEndBlock",
          "type": "uint256"
        }
      ],
      "stateMutability": "nonpayable",
      "type": "constructor"
    },
    {
      "anonymous": false,
      "inputs": [
        {
          "indexed": true,
          "internalType": "address",
          "name": "user",
          "type": "address"
        },
        {
          "indexed": true,
          "internalType": "uint256",
          "name": "pid",
          "type": "uint256"
        },
        {
          "indexed": false,
          "internalType": "uint256",
          "name": "amount",
          "type": "uint256"
        }
      ],
      "name": "Deposit",
      "type": "event"
    },
    {
      "anonymous": false,
      "inputs": [
        {
          "indexed": true,
          "internalType": "address",
          "name": "user",
          "type": "address"
        },
        {
          "indexed": true,
          "internalType": "uint256",
          "name": "pid",
          "type": "uint256"
        },
        {
          "indexed": false,
          "internalType": "uint256",
          "name": "amount",
          "type": "uint256"
        }
      ],
      "name": "EmergencyWithdraw",
      "type": "event"
    },
    {
      "anonymous": false,
      "inputs": [
        {
          "indexed": true,
          "internalType": "address",
          "name": "previousOwner",
          "type": "address"
        },
        {
          "indexed": true,
          "internalType": "address",
          "name": "newOwner",
          "type": "address"
        }
      ],
      "name": "OwnershipTransferred",
      "type": "event"
    },
    {
      "anonymous": false,
      "inputs": [
        {
          "indexed": true,
          "internalType": "address",
          "name": "user",
          "type": "address"
        },
        {
          "indexed": true,
          "internalType": "uint256",
          "name": "pid",
          "type": "uint256"
        },
        {
          "indexed": false,
          "internalType": "uint256",
          "name": "amount",
          "type": "uint256"
        }
      ],
      "name": "Withdraw",
      "type": "event"
    },
    {
      "inputs": [],
      "name": "BONUS_MULTIPLIER",
      "outputs": [
        {
          "internalType": "uint256",
          "name": "",
          "type": "uint256"
        }
      ],
      "stateMutability": "view",
      "type": "function"
    },
    {
      "inputs": [
        {
          "internalType": "uint256",
          "name": "_allocPoint",
          "type": "uint256"
        },
        {
          "internalType": "contract IERC20",
          "name": "_lpToken",
          "type": "address"
        },
        {
          "internalType": "bool",
          "name": "_withUpdate",
          "type": "bool"
        }
      ],
      "name": "add",
      "outputs": [],
      "stateMutability": "nonpayable",
      "type": "function"
    },
    {
      "inputs": [],
      "name": "bonusEndBlock",
      "outputs": [
        {
          "internalType": "uint256",
          "name": "",
          "type": "uint256"
        }
      ],
      "stateMutability": "view",
      "type": "function"
    },
    {
      "inputs": [
        {
          "internalType": "uint256",
          "name": "_pid",
          "type": "uint256"
        },
        {
          "internalType": "uint256",
          "name": "_amount",
          "type": "uint256"
        }
      ],
      "name": "deposit",
      "outputs": [],
      "stateMutability": "nonpayable",
      "type": "function"
    },
    {
      "inputs": [
        {
          "internalType": "address",
          "name": "_devaddr",
          "type": "address"
        }
      ],
      "name": "dev",
      "outputs": [],
      "stateMutability": "nonpayable",
      "type": "function"
    },
    {
      "inputs": [],
      "name": "devaddr",
      "outputs": [
        {
          "internalType": "address",
          "name": "",
          "type": "address"
        }
      ],
      "stateMutability": "view",
      "type": "function"
    },
    {
      "inputs": [
        {
          "internalType": "uint256",
          "name": "_pid",
          "type": "uint256"
        }
      ],
      "name": "emergencyWithdraw",
      "outputs": [],
      "stateMutability": "nonpayable",
      "type": "function"
    },
    {
      "inputs": [
        {
          "internalType": "uint256",
          "name": "_from",
          "type": "uint256"
        },
        {
          "internalType": "uint256",
          "name": "_to",
          "type": "uint256"
        }
      ],
      "name": "getMultiplier",
      "outputs": [
        {
          "internalType": "uint256",
          "name": "",
          "type": "uint256"
        }
      ],
      "stateMutability": "view",
      "type": "function"
    },
    {
      "inputs": [],
      "name": "massUpdatePools",
      "outputs": [],
      "stateMutability": "nonpayable",
      "type": "function"
    },
    {
      "inputs": [],
      "name": "owner",
      "outputs": [
        {
          "internalType": "address",
          "name": "",
          "type": "address"
        }
      ],
      "stateMutability": "view",
      "type": "function"
    },
    {
      "inputs": [
        {
          "internalType": "uint256",
          "name": "_pid",
          "type": "uint256"
        },
        {
          "internalType": "address",
          "name": "_user",
          "type": "address"
        }
      ],
      "name": "pendingSushi",
      "outputs": [
        {
          "internalType": "uint256",
          "name": "",
          "type": "uint256"
        }
      ],
      "stateMutability": "view",
      "type": "function"
    },
    {
      "inputs": [
        {
          "internalType": "uint256",
          "name": "",
          "type": "uint256"
        }
      ],
      "name": "poolInfo",
      "outputs": [
        {
          "internalType": "contract IERC20",
          "name": "lpToken",
          "type": "address"
        },
        {
          "internalType": "uint256",
          "name": "allocPoint",
          "type": "uint256"
        },
        {
          "internalType": "uint256",
          "name": "lastRewardBlock",
          "type": "uint256"
        },
        {
          "internalType": "uint256",
          "name": "accSushiPerShare",
          "type": "uint256"
        }
      ],
      "stateMutability": "view",
      "type": "function"
    },
    {
      "inputs": [],
      "name": "poolLength",
      "outputs": [
        {
          "internalType": "uint256",
          "name": "",
          "type": "uint256"
        }
      ],
      "stateMutability": "view",
      "type": "function"
    },
    {
      "inputs": [],
      "name": "renounceOwnership",
      "outputs": [],
      "stateMutability": "nonpayable",
      "type": "function"
    },
    {
      "inputs": [
        {
          "internalType": "uint256",
          "name": "_pid",
          "type": "uint256"
        },
        {
          "internalType": "uint256",
          "name": "_allocPoint",
          "type": "uint256"
        },
        {
          "internalType": "bool",
          "name": "_withUpdate",
          "type": "bool"
        }
      ],
      "name": "set",
      "outputs": [],
      "stateMutability": "nonpayable",
      "type": "function"
    },
    {
      "inputs": [],
      "name": "startBlock",
      "outputs": [
        {
          "internalType": "uint256",
          "name": "",
          "type": "uint256"
        }
      ],
      "stateMutability": "view",
      "type": "function"
    },
    {
      "inputs": [],
      "name": "sushi",
      "outputs": [
        {
          "internalType": "contract SushiToken",
          "name": "",
          "type": "address"
        }
      ],
      "stateMutability": "view",
      "type": "function"
    },
    {
      "inputs": [],
      "name": "sushiPerBlock",
      "outputs": [
        {
          "internalType": "uint256",
          "name": "",
          "type": "uint256"
        }
      ],
      "stateMutability": "view",
      "type": "function"
    },
    {
      "inputs": [],
      "name": "totalAllocPoint",
      "outputs": [
        {
          "internalType": "uint256",
          "name": "",
          "type": "uint256"
        }
      ],
      "stateMutability": "view",
      "type": "function"
    },
    {
      "inputs": [
        {
          "internalType": "address",
          "name": "newOwner",
          "type": "address"
        }
      ],
      "name": "transferOwnership",
      "outputs": [],
      "stateMutability": "nonpayable",
      "type": "function"
    },
    {
      "inputs": [
        {
          "internalType": "uint256",
          "name": "_pid",
          "type": "uint256"
        }
      ],
      "name": "updatePool",
      "outputs": [],
      "stateMutability": "nonpayable",
      "type": "function"
    },
    {
      "inputs": [
        {
          "internalType": "uint256",
          "name": "",
          "type": "uint256"
        },
        {
          "internalType": "address",
          "name": "",
          "type": "address"
        }
      ],
      "name": "userInfo",
      "outputs": [
        {
          "internalType": "uint256",
          "name": "amount",
          "type": "uint256"
        },
        {
          "internalType": "uint256",
          "name": "rewardDebt",
          "type": "uint256"
        }
      ],
      "stateMutability": "view",
      "type": "function"
    },
    {
      "inputs": [
        {
          "internalType": "uint256",
          "name": "_pid",
          "type": "uint256"
        },
        {
          "internalType": "uint256",
          "name": "_amount",
          "type": "uint256"
        }
      ],
      "name": "withdraw",
      "outputs": [],
      "stateMutability": "nonpayable",
      "type": "function"
    }
  ],
  "bytecode": "0x6080604052600060075534801561001557600080fd5b50604051611899380380611899833981810160405260a081101561003857600080fd5b5080516020820151604083015160608401516080909401519293919290919060006100616100e9565b600080546001600160a01b0319166001600160a01b0383169081178255604051929350917f8be0079c531659141344cd1fd0a4f28419497f9722a3daafe3b4186f6b6457e0908290a350600180546001600160a01b039687166001600160a01b03199182161790915560028054959096169416939093179093556004556003556008556100ed565b3390565b61179d806100fc6000396000f3fe608060405234801561001057600080fd5b506004361061014d5760003560e01c8063630b5ba1116100c35780638dbb1e3a1161007c5780638dbb1e3a1461032557806393f1a40b14610348578063b0bcf42a1461038d578063d49e77cd14610395578063e2bbb1581461039d578063f2fde38b146103c05761014d565b8063630b5ba1146102b457806364482f79146102bc578063715018a6146102e75780638aa28550146102ef5780638d88a90e146102f75780638da5cb5b1461031d5761014d565b80631aed6553116101155780631aed6553146102115780631eaaa04514610219578063441a3e701461024f57806348cd4cb11461027257806351eb05a61461027a5780635312ea8e146102975761014d565b8063081e3eda146101525780630a0879031461016c5780631526fe271461019057806317caf6f1146101dd578063195426ec146101e5575b600080fd5b61015a6103e6565b60408051918252519081900360200190f35b6101746103ec565b604080516001600160a01b039092168252519081900360200190f35b6101ad600480360360208110156101a657600080fd5b50356103fb565b604080516001600160a01b0390951685526020850193909352838301919091526060830152519081900360800190f35b61015a61043c565b61015a600480360360408110156101fb57600080fd5b50803590602001356001600160a01b0316610442565b61015a6105b8565b61024d6004803603606081101561022f57600080fd5b508035906001600160a01b03602082013516906040013515156105be565b005b61024d6004803603604081101561026557600080fd5b5080359060200135610743565b61015a61088a565b61024d6004803603602081101561029057600080fd5b5035610890565b61024d600480360360208110156102ad57600080fd5b5035610ab1565b61024d610b4c565b61024d600480360360608110156102d257600080fd5b50803590602081013590604001351515610b6f565b61024d610c4a565b61015a610cf6565b61024d6004803603602081101561030d57600080fd5b50356001600160a01b0316610cfb565b610174610d68565b61015a6004803603604081101561033b57600080fd5b5080359060200135610d77565b6103746004803603604081101561035e57600080fd5b50803590602001356001600160a01b0316610ddd565b6040805192835260208301919091528051918290030190f35b61015a610e01565b610174610e07565b61024d600480360360408110156103b357600080fd5b5080359060200135610e16565b61024d600480360360208110156103d657600080fd5b50356001600160a01b0316610f1b565b60055490565b6001546001600160a01b031681565b6005818154811061040857fe5b600091825260209091206004909102018054600182015460028301546003909301546001600160a01b039092169350919084565b60075481565b6000806005848154811061045257fe5b600091825260208083208784526006825260408085206001600160a01b03898116875290845281862060049586029093016003810154815484516370a0823160e01b81523098810198909852935191985093969395939492909116926370a08231926024808301939192829003018186803b1580156104d057600080fd5b505afa1580156104e4573d6000803e3d6000fd5b505050506040513d60208110156104fa57600080fd5b505160028501549091504311801561051157508015155b1561057d576000610526856002015443610d77565b90506000610559600754610553886001015461054d6004548761101d90919063ffffffff16565b9061101d565b9061107d565b9050610578610571846105538464e8d4a5100061101d565b85906110e4565b935050505b6105ab83600101546105a564e8d4a5100061055386886000015461101d90919063ffffffff16565b9061113e565b9450505050505b92915050565b60035481565b6105c661119b565b6001600160a01b03166105d7610d68565b6001600160a01b031614610620576040805162461bcd60e51b8152602060048201819052602482015260008051602061171e833981519152604482015290519081900360640190fd5b801561062e5761062e610b4c565b6000600854431161064157600854610643565b435b60075490915061065390856110e4565b600755604080516080810182526001600160a01b0394851681526020810195865290810191825260006060820181815260058054600181018255925291517f036b6384b5eca791c62761152d0c79bb0604c104a5fb6f4eb0703f3154bb3db0600490920291820180546001600160a01b031916919096161790945593517f036b6384b5eca791c62761152d0c79bb0604c104a5fb6f4eb0703f3154bb3db1840155517f036b6384b5eca791c62761152d0c79bb0604c104a5fb6f4eb0703f3154bb3db28301555090517f036b6384b5eca791c62761152d0c79bb0604c104a5fb6f4eb0703f3154bb3db390910155565b60006005838154811061075257fe5b6000918252602080832086845260068252604080852033865290925292208054600490920290920192508311156107c5576040805162461bcd60e51b81526020600482015260126024820152711dda5d1a191c985dce881b9bdd0819dbdbd960721b604482015290519081900360640190fd5b6107ce84610890565b60006107fc82600101546105a564e8d4a510006105538760030154876000015461101d90919063ffffffff16565b9050610808338261119f565b8154610814908561113e565b80835560038401546108319164e8d4a5100091610553919061101d565b6001830155825461084c906001600160a01b03163386611330565b604080518581529051869133917ff279e6a1f5e320cca91135676d9cb6e44ca8a08c0b88342bcdb1144f6511b5689181900360200190a35050505050565b60085481565b60006005828154811061089f57fe5b90600052602060002090600402019050806002015443116108c05750610aae565b8054604080516370a0823160e01b815230600482015290516000926001600160a01b0316916370a08231916024808301926020929190829003018186803b15801561090a57600080fd5b505afa15801561091e573d6000803e3d6000fd5b505050506040513d602081101561093457600080fd5b505190508061094a575043600290910155610aae565b600061095a836002015443610d77565b90506000610981600754610553866001015461054d6004548761101d90919063ffffffff16565b6001546002549192506001600160a01b03908116916340c10f1991166109a884600a61107d565b6040518363ffffffff1660e01b815260040180836001600160a01b0316815260200182815260200192505050600060405180830381600087803b1580156109ee57600080fd5b505af1158015610a02573d6000803e3d6000fd5b5050600154604080516340c10f1960e01b81523060048201526024810186905290516001600160a01b0390921693506340c10f19925060448082019260009290919082900301818387803b158015610a5957600080fd5b505af1158015610a6d573d6000803e3d6000fd5b50505050610a9b610a908461055364e8d4a510008561101d90919063ffffffff16565b6003860154906110e4565b6003850155505043600290920191909155505b50565b600060058281548110610ac057fe5b60009182526020808320858452600682526040808520338087529352909320805460049093029093018054909450610b05926001600160a01b03919091169190611330565b80546040805191825251849133917fbb757047c2b5f3974fe26b7c10f732e7bce710b0952a71082702781e62ae05959181900360200190a360008082556001909101555050565b60055460005b81811015610b6b57610b6381610890565b600101610b52565b5050565b610b7761119b565b6001600160a01b0316610b88610d68565b6001600160a01b031614610bd1576040805162461bcd60e51b8152602060048201819052602482015260008051602061171e833981519152604482015290519081900360640190fd5b8015610bdf57610bdf610b4c565b610c1c82610c1660058681548110610bf357fe5b90600052602060002090600402016001015460075461113e90919063ffffffff16565b906110e4565b6007819055508160058481548110610c3057fe5b906000526020600020906004020160010181905550505050565b610c5261119b565b6001600160a01b0316610c63610d68565b6001600160a01b031614610cac576040805162461bcd60e51b8152602060048201819052602482015260008051602061171e833981519152604482015290519081900360640190fd5b600080546040516001600160a01b03909116907f8be0079c531659141344cd1fd0a4f28419497f9722a3daafe3b4186f6b6457e0908390a3600080546001600160a01b0319169055565b600181565b6002546001600160a01b03163314610d46576040805162461bcd60e51b81526020600482015260096024820152686465763a207775743f60b81b604482015290519081900360640190fd5b600280546001600160a01b0319166001600160a01b0392909216919091179055565b6000546001600160a01b031690565b60006003548211610d9857610d91600161054d848661113e565b90506105b2565b6003548310610dab57610d91828461113e565b610d91610dc36003548461113e90919063ffffffff16565b610c16600161054d8760035461113e90919063ffffffff16565b60066020908152600092835260408084209091529082529020805460019091015482565b60045481565b6002546001600160a01b031681565b600060058381548110610e2557fe5b60009182526020808320868452600682526040808520338652909252922060049091029091019150610e5684610890565b805415610e99576000610e8b82600101546105a564e8d4a510006105538760030154876000015461101d90919063ffffffff16565b9050610e97338261119f565b505b8154610eb0906001600160a01b0316333086611382565b8054610ebc90846110e4565b8082556003830154610ed99164e8d4a5100091610553919061101d565b6001820155604080518481529051859133917f90890809c654f11d6e72a28fa60149770a0d11ec6c92319d6ceb2bb0a4ea1a159181900360200190a350505050565b610f2361119b565b6001600160a01b0316610f34610d68565b6001600160a01b031614610f7d576040805162461bcd60e51b8152602060048201819052602482015260008051602061171e833981519152604482015290519081900360640190fd5b6001600160a01b038116610fc25760405162461bcd60e51b81526004018080602001828103825260268152602001806116b16026913960400191505060405180910390fd5b600080546040516001600160a01b03808516939216917f8be0079c531659141344cd1fd0a4f28419497f9722a3daafe3b4186f6b6457e091a3600080546001600160a01b0319166001600160a01b0392909216919091179055565b60008261102c575060006105b2565b8282028284828161103957fe5b04146110765760405162461bcd60e51b81526004018080602001828103825260218152602001806116fd6021913960400191505060405180910390fd5b9392505050565b60008082116110d3576040805162461bcd60e51b815260206004820152601a60248201527f536166654d6174683a206469766973696f6e206279207a65726f000000000000604482015290519081900360640190fd5b8183816110dc57fe5b049392505050565b600082820183811015611076576040805162461bcd60e51b815260206004820152601b60248201527f536166654d6174683a206164646974696f6e206f766572666c6f770000000000604482015290519081900360640190fd5b600082821115611195576040805162461bcd60e51b815260206004820152601e60248201527f536166654d6174683a207375627472616374696f6e206f766572666c6f770000604482015290519081900360640190fd5b50900390565b3390565b600154604080516370a0823160e01b815230600482015290516000926001600160a01b0316916370a08231916024808301926020929190829003018186803b1580156111ea57600080fd5b505afa1580156111fe573d6000803e3d6000fd5b505050506040513d602081101561121457600080fd5b50519050808211156112a8576001546040805163a9059cbb60e01b81526001600160a01b038681166004830152602482018590529151919092169163a9059cbb9160448083019260209291908290030181600087803b15801561127657600080fd5b505af115801561128a573d6000803e3d6000fd5b505050506040513d60208110156112a057600080fd5b5061132b9050565b6001546040805163a9059cbb60e01b81526001600160a01b038681166004830152602482018690529151919092169163a9059cbb9160448083019260209291908290030181600087803b1580156112fe57600080fd5b505af1158015611312573d6000803e3d6000fd5b505050506040513d602081101561132857600080fd5b50505b505050565b604080516001600160a01b038416602482015260448082018490528251808303909101815260649091019091526020810180516001600160e01b031663a9059cbb60e01b17905261132b9084906113e2565b604080516001600160a01b0380861660248301528416604482015260648082018490528251808303909101815260849091019091526020810180516001600160e01b03166323b872dd60e01b1790526113dc9085906113e2565b50505050565b6060611437826040518060400160405280602081526020017f5361666545524332303a206c6f772d6c6576656c2063616c6c206661696c6564815250856001600160a01b03166114939092919063ffffffff16565b80519091501561132b5780806020019051602081101561145657600080fd5b505161132b5760405162461bcd60e51b815260040180806020018281038252602a81526020018061173e602a913960400191505060405180910390fd5b60606114a284846000856114aa565b949350505050565b6060824710156114eb5760405162461bcd60e51b81526004018080602001828103825260268152602001806116d76026913960400191505060405180910390fd5b6114f485611606565b611545576040805162461bcd60e51b815260206004820152601d60248201527f416464726573733a2063616c6c20746f206e6f6e2d636f6e7472616374000000604482015290519081900360640190fd5b60006060866001600160a01b031685876040518082805190602001908083835b602083106115845780518252601f199092019160209182019101611565565b6001836020036101000a03801982511681845116808217855250505050505090500191505060006040518083038185875af1925050503d80600081146115e6576040519150601f19603f3d011682016040523d82523d6000602084013e6115eb565b606091505b50915091506115fb82828661160c565b979650505050505050565b3b151590565b6060831561161b575081611076565b82511561162b5782518084602001fd5b8160405162461bcd60e51b81526004018080602001828103825283818151815260200191508051906020019080838360005b8381101561167557818101518382015260200161165d565b50505050905090810190601f1680156116a25780820380516001836020036101000a031916815260200191505b509250505060405180910390fdfe4f776e61626c653a206e6577206f776e657220697320746865207a65726f2061646472657373416464726573733a20696e73756666696369656e742062616c616e636520666f722063616c6c536166654d6174683a206d756c7469706c69636174696f6e206f766572666c6f774f776e61626c653a2063616c6c6572206973206e6f7420746865206f776e65725361666545524332303a204552433230206f7065726174696f6e20646964206e6f742073756363656564a264697066735822122062e374876d23ab46b61ebdda27b39a31cc23a6e0cce0deb8e52ce5ddbbb1fbb264736f6c634300060c0033",
  "linkReferences": {},
  "deployedLinkReferences": {}
}