{
  "_format": "hh-sol-artifact-1",
  "contractName": "BoringHelperV1",
  "sourceName": "contracts/boringcrypto/BoringHelperV1.sol",
  "abi": [
    {
      "inputs": [
        {
          "internalType": "contract IMasterChef",
          "name": "chef_",
          "type": "address"
        },
        {
          "internalType": "address",
          "name": "maker_",
          "type": "address"
        },
        {
          "internalType": "contract IERC20",
          "name": "joe_",
          "type": "address"
        },
        {
          "internalType": "contract IERC20",
          "name": "WAVAX_",
          "type": "address"
        },
        {
          "internalType": "contract IFactory",
          "name": "joeFactory_",
          "type": "address"
        },
        {
          "internalType": "contract IFactory",
          "name": "pangolinFactory_",
          "type": "address"
        },
        {
          "internalType": "contract IERC20",
          "name": "bar_",
          "type": "address"
        }
      ],
      "stateMutability": "nonpayable",
      "type": "constructor"
    },
    {
      "inputs": [],
      "name": "WAVAX",
      "outputs": [
        {
          "internalType": "contract IERC20",
          "name": "",
          "type": "address"
        }
      ],
      "stateMutability": "view",
      "type": "function"
    },
    {
      "inputs": [],
      "name": "bar",
      "outputs": [
        {
          "internalType": "contract IERC20",
          "name": "",
          "type": "address"
        }
      ],
      "stateMutability": "view",
      "type": "function"
    },
    {
      "inputs": [],
      "name": "chef",
      "outputs": [
        {
          "internalType": "contract IMasterChef",
          "name": "",
          "type": "address"
        }
      ],
      "stateMutability": "view",
      "type": "function"
    },
    {
      "inputs": [
        {
          "internalType": "address",
          "name": "who",
          "type": "address"
        },
        {
          "internalType": "address[]",
          "name": "addresses",
          "type": "address[]"
        }
      ],
      "name": "findBalances",
      "outputs": [
        {
          "components": [
            {
              "internalType": "contract IERC20",
              "name": "token",
              "type": "address"
            },
            {
              "internalType": "uint256",
              "name": "balance",
              "type": "uint256"
            }
          ],
          "internalType": "struct BoringHelperV1.Balance[]",
          "name": "",
          "type": "tuple[]"
        }
      ],
      "stateMutability": "view",
      "type": "function"
    },
    {
      "inputs": [
        {
          "internalType": "address",
          "name": "who",
          "type": "address"
        },
        {
          "internalType": "uint256[]",
          "name": "pids",
          "type": "uint256[]"
        }
      ],
      "name": "findPools",
      "outputs": [
        {
          "components": [
            {
              "internalType": "uint256",
              "name": "pid",
              "type": "uint256"
            },
            {
              "internalType": "uint256",
              "name": "balance",
              "type": "uint256"
            }
          ],
          "internalType": "struct BoringHelperV1.PoolFound[]",
          "name": "",
          "type": "tuple[]"
        }
      ],
      "stateMutability": "view",
      "type": "function"
    },
    {
      "inputs": [
        {
          "internalType": "contract IERC20",
          "name": "token",
          "type": "address"
        }
      ],
      "name": "getAVAXRate",
      "outputs": [
        {
          "internalType": "uint256",
          "name": "",
          "type": "uint256"
        }
      ],
      "stateMutability": "view",
      "type": "function"
    },
    {
      "inputs": [
        {
          "internalType": "address",
          "name": "who",
          "type": "address"
        },
        {
          "internalType": "contract IERC20[]",
          "name": "addresses",
          "type": "address[]"
        }
      ],
      "name": "getBalances",
      "outputs": [
        {
          "components": [
            {
              "internalType": "contract IERC20",
              "name": "token",
              "type": "address"
            },
            {
              "internalType": "uint256",
              "name": "totalSupply",
              "type": "uint256"
            },
            {
              "internalType": "uint256",
              "name": "balance",
              "type": "uint256"
            },
            {
              "internalType": "uint256",
              "name": "nonce",
              "type": "uint256"
            },
            {
              "internalType": "uint256",
              "name": "rate",
              "type": "uint256"
            }
          ],
          "internalType": "struct BoringHelperV1.BalanceFull[]",
          "name": "",
          "type": "tuple[]"
        }
      ],
      "stateMutability": "view",
      "type": "function"
    },
    {
      "inputs": [
        {
          "internalType": "contract IFactory",
          "name": "factory",
          "type": "address"
        },
        {
          "internalType": "uint256",
          "name": "fromID",
          "type": "uint256"
        },
        {
          "internalType": "uint256",
          "name": "toID",
          "type": "uint256"
        }
      ],
      "name": "getPairs",
      "outputs": [
        {
          "components": [
            {
              "internalType": "contract IPair",
              "name": "token",
              "type": "address"
            },
            {
              "internalType": "contract IERC20",
              "name": "token0",
              "type": "address"
            },
            {
              "internalType": "contract IERC20",
              "name": "token1",
              "type": "address"
            },
            {
              "internalType": "uint256",
              "name": "totalSupply",
              "type": "uint256"
            }
          ],
          "internalType": "struct BoringHelperV1.PairBase[]",
          "name": "",
          "type": "tuple[]"
        }
      ],
      "stateMutability": "view",
      "type": "function"
    },
    {
      "inputs": [
        {
          "internalType": "uint256[]",
          "name": "pids",
          "type": "uint256[]"
        }
      ],
      "name": "getPools",
      "outputs": [
        {
          "components": [
            {
              "internalType": "uint256",
              "name": "totalAllocPoint",
              "type": "uint256"
            },
            {
              "internalType": "uint256",
              "name": "poolLength",
              "type": "uint256"
            }
          ],
          "internalType": "struct BoringHelperV1.PoolsInfo",
          "name": "",
          "type": "tuple"
        },
        {
          "components": [
            {
              "internalType": "uint256",
              "name": "pid",
              "type": "uint256"
            },
            {
              "internalType": "contract IPair",
              "name": "lpToken",
              "type": "address"
            },
            {
              "internalType": "uint256",
              "name": "allocPoint",
              "type": "uint256"
            },
            {
              "internalType": "bool",
              "name": "isPair",
              "type": "bool"
            },
            {
              "internalType": "contract IFactory",
              "name": "factory",
              "type": "address"
            },
            {
              "internalType": "contract IERC20",
              "name": "token0",
              "type": "address"
            },
            {
              "internalType": "contract IERC20",
              "name": "token1",
              "type": "address"
            },
            {
              "internalType": "string",
              "name": "name",
              "type": "string"
            },
            {
              "internalType": "string",
              "name": "symbol",
              "type": "string"
            },
            {
              "internalType": "uint8",
              "name": "decimals",
              "type": "uint8"
            }
          ],
          "internalType": "struct BoringHelperV1.PoolInfo[]",
          "name": "",
          "type": "tuple[]"
        }
      ],
      "stateMutability": "view",
      "type": "function"
    },
    {
      "inputs": [
        {
          "internalType": "address[]",
          "name": "addresses",
          "type": "address[]"
        }
      ],
      "name": "getTokenInfo",
      "outputs": [
        {
          "components": [
            {
              "internalType": "contract IERC20",
              "name": "token",
              "type": "address"
            },
            {
              "internalType": "uint256",
              "name": "decimals",
              "type": "uint256"
            },
            {
              "internalType": "string",
              "name": "name",
              "type": "string"
            },
            {
              "internalType": "string",
              "name": "symbol",
              "type": "string"
            },
            {
              "internalType": "bytes32",
              "name": "DOMAIN_SEPARATOR",
              "type": "bytes32"
            }
          ],
          "internalType": "struct BoringHelperV1.TokenInfo[]",
          "name": "",
          "type": "tuple[]"
        }
      ],
      "stateMutability": "view",
      "type": "function"
    },
    {
      "inputs": [
        {
          "internalType": "address",
          "name": "who",
          "type": "address"
        },
        {
          "internalType": "contract IFactory[]",
          "name": "factoryAddresses",
          "type": "address[]"
        },
        {
          "internalType": "contract IERC20",
          "name": "currency",
          "type": "address"
        },
        {
          "internalType": "address[]",
          "name": "masterContracts",
          "type": "address[]"
        }
      ],
      "name": "getUIInfo",
      "outputs": [
        {
          "components": [
            {
              "internalType": "uint256",
              "name": "avaxBalance",
              "type": "uint256"
            },
            {
              "internalType": "uint256",
              "name": "joeBalance",
              "type": "uint256"
            },
            {
              "internalType": "uint256",
              "name": "joeBarBalance",
              "type": "uint256"
            },
            {
              "internalType": "uint256",
              "name": "xjoeBalance",
              "type": "uint256"
            },
            {
              "internalType": "uint256",
              "name": "xjoeSupply",
              "type": "uint256"
            },
            {
              "internalType": "uint256",
              "name": "joeBarAllowance",
              "type": "uint256"
            },
            {
              "components": [
                {
                  "internalType": "contract IFactory",
                  "name": "factory",
                  "type": "address"
                },
                {
                  "internalType": "uint256",
                  "name": "allPairsLength",
                  "type": "uint256"
                }
              ],
              "internalType": "struct BoringHelperV1.Factory[]",
              "name": "factories",
              "type": "tuple[]"
            },
            {
              "internalType": "uint256",
              "name": "avaxRate",
              "type": "uint256"
            },
            {
              "internalType": "uint256",
              "name": "joeRate",
              "type": "uint256"
            },
            {
              "internalType": "uint256",
              "name": "btcRate",
              "type": "uint256"
            },
            {
              "internalType": "uint256",
              "name": "pendingJoe",
              "type": "uint256"
            },
            {
              "internalType": "uint256",
              "name": "blockTimeStamp",
              "type": "uint256"
            }
          ],
          "internalType": "struct BoringHelperV1.UIInfo",
          "name": "",
          "type": "tuple"
        }
      ],
      "stateMutability": "view",
      "type": "function"
    },
    {
      "inputs": [],
      "name": "joe",
      "outputs": [
        {
          "internalType": "contract IERC20",
          "name": "",
          "type": "address"
        }
      ],
      "stateMutability": "view",
      "type": "function"
    },
    {
      "inputs": [],
      "name": "joeFactory",
      "outputs": [
        {
          "internalType": "contract IFactory",
          "name": "",
          "type": "address"
        }
      ],
      "stateMutability": "view",
      "type": "function"
    },
    {
      "inputs": [],
      "name": "maker",
      "outputs": [
        {
          "internalType": "address",
          "name": "",
          "type": "address"
        }
      ],
      "stateMutability": "view",
      "type": "function"
    },
    {
      "inputs": [],
      "name": "owner",
      "outputs": [
        {
          "internalType": "address",
          "name": "",
          "type": "address"
        }
      ],
      "stateMutability": "view",
      "type": "function"
    },
    {
      "inputs": [],
      "name": "pangolinFactory",
      "outputs": [
        {
          "internalType": "contract IFactory",
          "name": "",
          "type": "address"
        }
      ],
      "stateMutability": "view",
      "type": "function"
    },
    {
      "inputs": [
        {
          "internalType": "address",
          "name": "who",
          "type": "address"
        },
        {
          "internalType": "contract IPair[]",
          "name": "addresses",
          "type": "address[]"
        }
      ],
      "name": "pollPairs",
      "outputs": [
        {
          "components": [
            {
              "internalType": "contract IPair",
              "name": "token",
              "type": "address"
            },
            {
              "internalType": "uint256",
              "name": "reserve0",
              "type": "uint256"
            },
            {
              "internalType": "uint256",
              "name": "reserve1",
              "type": "uint256"
            },
            {
              "internalType": "uint256",
              "name": "totalSupply",
              "type": "uint256"
            },
            {
              "internalType": "uint256",
              "name": "balance",
              "type": "uint256"
            }
          ],
          "internalType": "struct BoringHelperV1.PairPoll[]",
          "name": "",
          "type": "tuple[]"
        }
      ],
      "stateMutability": "view",
      "type": "function"
    },
    {
      "inputs": [
        {
          "internalType": "address",
          "name": "who",
          "type": "address"
        },
        {
          "internalType": "uint256[]",
          "name": "pids",
          "type": "uint256[]"
        }
      ],
      "name": "pollPools",
      "outputs": [
        {
          "components": [
            {
              "internalType": "uint256",
              "name": "pid",
              "type": "uint256"
            },
            {
              "internalType": "uint256",
              "name": "balance",
              "type": "uint256"
            },
            {
              "internalType": "uint256",
              "name": "totalSupply",
              "type": "uint256"
            },
            {
              "internalType": "uint256",
              "name": "lpBalance",
              "type": "uint256"
            },
            {
              "internalType": "uint256",
              "name": "lpTotalSupply",
              "type": "uint256"
            },
            {
              "internalType": "uint256",
              "name": "lpAllowance",
              "type": "uint256"
            },
            {
              "internalType": "uint256",
              "name": "reserve0",
              "type": "uint256"
            },
            {
              "internalType": "uint256",
              "name": "reserve1",
              "type": "uint256"
            },
            {
              "internalType": "uint256",
              "name": "rewardDebt",
              "type": "uint256"
            },
            {
              "internalType": "uint256",
              "name": "pending",
              "type": "uint256"
            }
          ],
          "internalType": "struct BoringHelperV1.UserPoolInfo[]",
          "name": "",
          "type": "tuple[]"
        }
      ],
      "stateMutability": "view",
      "type": "function"
    },
    {
      "inputs": [
        {
          "internalType": "contract IMasterChef",
          "name": "chef_",
          "type": "address"
        },
        {
          "internalType": "address",
          "name": "maker_",
          "type": "address"
        },
        {
          "internalType": "contract IERC20",
          "name": "joe_",
          "type": "address"
        },
        {
          "internalType": "contract IERC20",
          "name": "WAVAX_",
          "type": "address"
        },
        {
          "internalType": "contract IFactory",
          "name": "joeFactory_",
          "type": "address"
        },
        {
          "internalType": "contract IFactory",
          "name": "pangolinFactory_",
          "type": "address"
        },
        {
          "internalType": "contract IERC20",
          "name": "bar_",
          "type": "address"
        }
      ],
      "name": "setContracts",
      "outputs": [],
      "stateMutability": "nonpayable",
      "type": "function"
    }
  ],
  "bytecode": "0x60a06040523480156200001157600080fd5b50604051620038a9380380620038a98339810160408190526200003491620000bc565b3360601b608052600080546001600160a01b03199081166001600160a01b03998a161790915560018054821697891697909717909655600280548716958816959095179094556003805480881690871617905560048054861692871692909217909155600580548516918616919091179055506006805490921692169190911790556200017f565b600080600080600080600060e0888a031215620000d7578283fd5b8751620000e48162000166565b6020890151909750620000f78162000166565b60408901519096506200010a8162000166565b60608901519095506200011d8162000166565b6080890151909450620001308162000166565b60a0890151909350620001438162000166565b60c0890151909250620001568162000166565b8091505092959891949750929550565b6001600160a01b03811681146200017c57600080fd5b50565b60805160601c613707620001a260003980611a825280611ffe52506137076000f3fe608060405234801561001057600080fd5b50600436106101215760003560e01c80638a38466e116100ad578063b985a3a011610071578063b985a3a014610260578063ca0f937c14610268578063d3ff95c714610288578063d9116dc31461029d578063febb0f7e146102bd57610121565b80638a38466e146102155780638da5cb5b1461021d578063a959dd8014610225578063ac6091f814610238578063b295d2a11461025857610121565b80634a69ac50116100f45780634a69ac50146101a557806350655d8c146101c55780636a385ae9146101cd57806373b295c2146101ed5780637e3e2596146101f557610121565b806315243475146101265780631fc8bc5d1461014f5780632952dde8146101645780633009f41414610185575b600080fd5b610139610134366004612d90565b6102c5565b60405161014691906135b2565b60405180910390f35b6101576108a1565b6040516101469190613185565b610177610172366004612e61565b6108b0565b604051610146929190613490565b610198610193366004612d7c565b610dcd565b60405161014691906133c5565b6101b86101b3366004612e61565b6113cf565b604051610146919061331a565b61015761153c565b6101e06101db366004612d7c565b61154b565b60405161014691906131b3565b61015761176f565b610208610203366004612ed4565b61177e565b6040516101469190613275565b610157611a71565b610157611a80565b6101e0610233366004612d7c565b611aa4565b61024b610246366004612d7c565b611d4f565b60405161014691906132da565b610157611e8f565b610157611e9e565b61027b610276366004612d2a565b611ead565b604051610146919061322a565b61029b610296366004612f08565b611ffc565b005b6102b06102ab366004612d07565b6120cb565b6040516101469190613654565b6101576124ee565b6102cd612a79565b6102d5612a79565b6001600160a01b038816318152856001600160401b03811180156102f857600080fd5b5060405190808252806020026020018201604052801561033257816020015b61031f612ada565b8152602001906001900390816103175790505b5060c082015260005b8681101561043557600088888381811061035157fe5b90506020020160208101906103669190612d07565b9050808360c00151838151811061037957fe5b6020026020010151600001906001600160a01b031690816001600160a01b031681525050806001600160a01b031663574f2ba36040518163ffffffff1660e01b815260040160206040518083038186803b1580156103d657600080fd5b505afa1580156103ea573d6000803e3d6000fd5b505050506040513d601f19601f8201168201806040525081019061040e9190612ea0565b8360c00151838151811061041e57fe5b60209081029190910181015101525060010161033b565b506001600160a01b038516156104545761044e856120cb565b60e08201525b6002546001600160a01b03161561061e5760025461047a906001600160a01b03166120cb565b6101008201526002546040516370a0823160e01b81526001600160a01b03909116906370a08231906104b0908b90600401613185565b60206040518083038186803b1580156104c857600080fd5b505afa1580156104dc573d6000803e3d6000fd5b505050506040513d601f19601f820116820180604052508101906105009190612ea0565b60208201526002546006546040516370a0823160e01b81526001600160a01b03928316926370a082319261053992911690600401613185565b60206040518083038186803b15801561055157600080fd5b505afa158015610565573d6000803e3d6000fd5b505050506040513d601f19601f820116820180604052508101906105899190612ea0565b6040808301919091526002546006549151636eb1769f60e11b81526001600160a01b039182169263dd62ed3e926105c8928d9290911690600401613199565b60206040518083038186803b1580156105e057600080fd5b505afa1580156105f4573d6000803e3d6000fd5b505050506040513d601f19601f820116820180604052508101906106189190612ea0565b60a08201525b6006546001600160a01b031615610737576006546040516370a0823160e01b81526001600160a01b03909116906370a082319061065f908b90600401613185565b60206040518083038186803b15801561067757600080fd5b505afa15801561068b573d6000803e3d6000fd5b505050506040513d601f19601f820116820180604052508101906106af9190612ea0565b6060820152600654604080516318160ddd60e01b815290516001600160a01b03909216916318160ddd91600480820192602092909190829003018186803b1580156106f957600080fd5b505afa15801561070d573d6000803e3d6000fd5b505050506040513d601f19601f820116820180604052508101906107319190612ea0565b60808201525b6000546001600160a01b03161561088f5760008060009054906101000a90046001600160a01b03166001600160a01b031663081e3eda6040518163ffffffff1660e01b815260040160206040518083038186803b15801561079757600080fd5b505afa1580156107ab573d6000803e3d6000fd5b505050506040513d601f19601f820116820180604052508101906107cf9190612ea0565b90506000805b828110156108865760008060009054906101000a90046001600160a01b03166001600160a01b031663ffcd4263838e6040518363ffffffff1660e01b815260040161082192919061365d565b60006040518083038186803b15801561083957600080fd5b505afa15801561084d573d6000803e3d6000fd5b505050506040513d6000823e601f3d908101601f191682016040526108759190810190613023565b5050509290920191506001016107d5565b50610140830152505b42610160820152979650505050505050565b6000546001600160a01b031681565b6108b8612af1565b60606108c2612af1565b60008054906101000a90046001600160a01b03166001600160a01b03166317caf6f16040518163ffffffff1660e01b815260040160206040518083038186803b15801561090e57600080fd5b505afa158015610922573d6000803e3d6000fd5b505050506040513d601f19601f820116820180604052508101906109469190612ea0565b8152600080546040805163040f1f6d60e11b815290516001600160a01b039092169163081e3eda91600480820192602092909190829003018186803b15801561098e57600080fd5b505afa1580156109a2573d6000803e3d6000fd5b505050506040513d601f19601f820116820180604052508101906109c69190612ea0565b6020830181905290506060856001600160401b03811180156109e757600080fd5b50604051908082528060200260200182016040528015610a2157816020015b610a0e612b0b565b815260200190600190039081610a065790505b50905060005b86811015610dbd57878782818110610a3b57fe5b90506020020135828281518110610a4e57fe5b6020908102919091010151526000805481906001600160a01b0316631526fe278b8b86818110610a7a57fe5b905060200201356040518263ffffffff1660e01b8152600401610a9d9190613654565b60806040518083038186803b158015610ab557600080fd5b505afa158015610ac9573d6000803e3d6000fd5b505050506040513d601f19601f82011682018060405250810190610aed9190612e23565b505091509150600082905080858581518110610b0557fe5b6020026020010151602001906001600160a01b031690816001600160a01b03168152505081858581518110610b3657fe5b60200260200101516040018181525050610b58816001600160a01b03166124fd565b858581518110610b6457fe5b602002602001015160e00181905250610b85816001600160a01b03166125c0565b858581518110610b9157fe5b60200260200101516101000181905250610bb3816001600160a01b0316612607565b858581518110610bbf57fe5b6020026020010151610120019060ff16908160ff1681525050610bea816001600160a01b03166126c0565b858581518110610bf657fe5b6020026020010151608001906001600160a01b031690816001600160a01b03168152505060006001600160a01b0316858581518110610c3157fe5b6020026020010151608001516001600160a01b031614610db2576001858581518110610c5957fe5b60200260200101516060019015159081151581525050806001600160a01b0316630dfe16816040518163ffffffff1660e01b815260040160206040518083038186803b158015610ca857600080fd5b505afa158015610cbc573d6000803e3d6000fd5b505050506040513d601f19601f82011682018060405250810190610ce09190612eb8565b858581518110610cec57fe5b602002602001015160a001906001600160a01b031690816001600160a01b031681525050806001600160a01b031663d21220a76040518163ffffffff1660e01b815260040160206040518083038186803b158015610d4957600080fd5b505afa158015610d5d573d6000803e3d6000fd5b505050506040513d601f19601f82011682018060405250810190610d819190612eb8565b858581518110610d8d57fe5b602002602001015160c001906001600160a01b031690816001600160a01b0316815250505b505050600101610a27565b50919350909150505b9250929050565b606080826001600160401b0381118015610de657600080fd5b50604051908082528060200260200182016040528015610e2057816020015b610e0d612b5e565b815260200190600190039081610e055790505b50905060005b838110156113c657600080546001600160a01b03166393f1a40b878785818110610e4c57fe5b90506020020135896040518363ffffffff1660e01b8152600401610e7192919061365d565b604080518083038186803b158015610e8857600080fd5b505afa158015610e9c573d6000803e3d6000fd5b505050506040513d601f19601f82011682018060405250810190610ec09190613082565b50905080838381518110610ed057fe5b6020908102919091018101510152600080546001600160a01b031663ffcd4263888886818110610efc57fe5b905060200201358a6040518363ffffffff1660e01b8152600401610f2192919061365d565b60006040518083038186803b158015610f3957600080fd5b505afa158015610f4d573d6000803e3d6000fd5b505050506040513d6000823e601f3d908101601f19168201604052610f759190810190613023565b505050905080848481518110610f8757fe5b60209081029190910101516101200152600080546001600160a01b0316631526fe27898987818110610fb557fe5b905060200201356040518263ffffffff1660e01b8152600401610fd89190613654565b60806040518083038186803b158015610ff057600080fd5b505afa158015611004573d6000803e3d6000fd5b505050506040513d601f19601f820116820180604052508101906110289190612e23565b505050905087878581811061103957fe5b9050602002013585858151811061104c57fe5b60209081029190910101515280600061106d6001600160a01b0383166126c0565b90506001600160a01b038116156113b5576000546040516370a0823160e01b81526001600160a01b03848116926370a08231926110b09290911690600401613185565b60206040518083038186803b1580156110c857600080fd5b505afa1580156110dc573d6000803e3d6000fd5b505050506040513d601f19601f820116820180604052508101906111009190612ea0565b87878151811061110c57fe5b60200260200101516040018181525050816001600160a01b031663dd62ed3e8c60008054906101000a90046001600160a01b03166040518363ffffffff1660e01b815260040161115d929190613199565b60206040518083038186803b15801561117557600080fd5b505afa158015611189573d6000803e3d6000fd5b505050506040513d601f19601f820116820180604052508101906111ad9190612ea0565b8787815181106111b957fe5b602090810291909101015160a001526040516370a0823160e01b81526001600160a01b038316906370a08231906111f4908e90600401613185565b60206040518083038186803b15801561120c57600080fd5b505afa158015611220573d6000803e3d6000fd5b505050506040513d601f19601f820116820180604052508101906112449190612ea0565b87878151811061125057fe5b60200260200101516060018181525050816001600160a01b03166318160ddd6040518163ffffffff1660e01b815260040160206040518083038186803b15801561129957600080fd5b505afa1580156112ad573d6000803e3d6000fd5b505050506040513d601f19601f820116820180604052508101906112d19190612ea0565b8787815181106112dd57fe5b60200260200101516080018181525050600080836001600160a01b0316630902f1ac6040518163ffffffff1660e01b815260040160606040518083038186803b15801561132957600080fd5b505afa15801561133d573d6000803e3d6000fd5b505050506040513d601f19601f820116820180604052508101906113619190612fcf565b5091509150816001600160701b031689898151811061137c57fe5b602002602001015160c0018181525050806001600160701b03168989815181106113a257fe5b602002602001015160e001818152505050505b505060019093019250610e26915050565b50949350505050565b606080826001600160401b03811180156113e857600080fd5b5060405190808252806020026020018201604052801561142257816020015b61140f612bb1565b8152602001906001900390816114075790505b50905060005b8381101561153457600085858381811061143e57fe5b90506020020160208101906114539190612d07565b90508083838151811061146257fe5b60209081029190910101516001600160a01b0391821690526114859082166124fd565b83838151811061149157fe5b6020026020010151604001819052506114b2816001600160a01b03166125c0565b8383815181106114be57fe5b6020026020010151606001819052506114df816001600160a01b0316612607565b60ff168383815181106114ee57fe5b60200260200101516020018181525050611510816001600160a01b0316612779565b83838151811061151c57fe5b60209081029190910101516080015250600101611428565b509392505050565b6001546001600160a01b031681565b606080826001600160401b038111801561156457600080fd5b5060405190808252806020026020018201604052801561159e57816020015b61158b612bec565b8152602001906001900390816115835790505b50905060005b838110156113c65760008585838181106115ba57fe5b90506020020160208101906115cf9190612d07565b9050806001600160a01b03166318160ddd6040518163ffffffff1660e01b815260040160206040518083038186803b15801561160a57600080fd5b505afa15801561161e573d6000803e3d6000fd5b505050506040513d601f19601f820116820180604052508101906116429190612ea0565b83838151811061164e57fe5b602002602001015160200181815250508083838151811061166b57fe5b60209081029190910101516001600160a01b0391821690526040516370a0823160e01b8152908216906370a08231906116a8908a90600401613185565b60206040518083038186803b1580156116c057600080fd5b505afa1580156116d4573d6000803e3d6000fd5b505050506040513d601f19601f820116820180604052508101906116f89190612ea0565b83838151811061170457fe5b6020908102919091010151604001526117266001600160a01b03821688612836565b83838151811061173257fe5b6020026020010151606001818152505061174b816120cb565b83838151811061175757fe5b602090810291909101015160800152506001016115a4565b6003546001600160a01b031681565b6060808383036001600160401b038111801561179957600080fd5b506040519080825280602002602001820160405280156117d357816020015b6117c0612c24565b8152602001906001900390816117b85790505b509050835b838110156113c657604051631e3dd18b60e01b81526000906001600160a01b03881690631e3dd18b9061180f908590600401613654565b60206040518083038186803b15801561182757600080fd5b505afa15801561183b573d6000803e3d6000fd5b505050506040513d601f19601f8201168201806040525081019061185f9190612eb8565b9050600086830390508184828151811061187557fe5b6020026020010151600001906001600160a01b031690816001600160a01b031681525050816001600160a01b0316630dfe16816040518163ffffffff1660e01b815260040160206040518083038186803b1580156118d257600080fd5b505afa1580156118e6573d6000803e3d6000fd5b505050506040513d601f19601f8201168201806040525081019061190a9190612eb8565b84828151811061191657fe5b6020026020010151602001906001600160a01b031690816001600160a01b031681525050816001600160a01b031663d21220a76040518163ffffffff1660e01b815260040160206040518083038186803b15801561197357600080fd5b505afa158015611987573d6000803e3d6000fd5b505050506040513d601f19601f820116820180604052508101906119ab9190612eb8565b8482815181106119b757fe5b6020026020010151604001906001600160a01b031690816001600160a01b031681525050816001600160a01b03166318160ddd6040518163ffffffff1660e01b815260040160206040518083038186803b158015611a1457600080fd5b505afa158015611a28573d6000803e3d6000fd5b505050506040513d601f19601f82011682018060405250810190611a4c9190612ea0565b848281518110611a5857fe5b60209081029190910101516060015250506001016117d8565b6004546001600160a01b031681565b7f000000000000000000000000000000000000000000000000000000000000000081565b606080826001600160401b0381118015611abd57600080fd5b50604051908082528060200260200182016040528015611af757816020015b611ae4612bec565b815260200190600190039081611adc5790505b50905060005b838110156113c6576000858583818110611b1357fe5b9050602002016020810190611b289190612d07565b905080838381518110611b3757fe5b6020026020010151600001906001600160a01b031690816001600160a01b031681525050600080826001600160a01b0316630902f1ac6040518163ffffffff1660e01b815260040160606040518083038186803b158015611b9757600080fd5b505afa158015611bab573d6000803e3d6000fd5b505050506040513d601f19601f82011682018060405250810190611bcf9190612fcf565b506001600160701b031691506001600160701b0316915081858581518110611bf357fe5b6020026020010151602001818152505080858581518110611c1057fe5b60200260200101516040018181525050826001600160a01b03166370a082318a6040518263ffffffff1660e01b8152600401611c4c9190613185565b60206040518083038186803b158015611c6457600080fd5b505afa158015611c78573d6000803e3d6000fd5b505050506040513d601f19601f82011682018060405250810190611c9c9190612ea0565b858581518110611ca857fe5b60200260200101516080018181525050826001600160a01b03166318160ddd6040518163ffffffff1660e01b815260040160206040518083038186803b158015611cf157600080fd5b505afa158015611d05573d6000803e3d6000fd5b505050506040513d601f19601f82011682018060405250810190611d299190612ea0565b858581518110611d3557fe5b602090810291909101015160600152505050600101611afd565b606080826001600160401b0381118015611d6857600080fd5b50604051908082528060200260200182016040528015611da257816020015b611d8f612af1565b815260200190600190039081611d875790505b50905060005b838110156113c657848482818110611dbc57fe5b90506020020135828281518110611dcf57fe5b6020908102919091010151526000546001600160a01b03166393f1a40b868684818110611df857fe5b90506020020135886040518363ffffffff1660e01b8152600401611e1d92919061365d565b604080518083038186803b158015611e3457600080fd5b505afa158015611e48573d6000803e3d6000fd5b505050506040513d601f19601f82011682018060405250810190611e6c9190613082565b50828281518110611e7957fe5b6020908102919091018101510152600101611da8565b6005546001600160a01b031681565b6002546001600160a01b031681565b606080826001600160401b0381118015611ec657600080fd5b50604051908082528060200260200182016040528015611f0057816020015b611eed612ada565b815260200190600190039081611ee55790505b5090508260005b81811015611ff1576000868683818110611f1d57fe5b9050602002016020810190611f329190612d07565b905080848381518110611f4157fe5b60209081029190910101516001600160a01b0391821690526040516370a0823160e01b8152908216906370a0823190611f7e908b90600401613185565b60206040518083038186803b158015611f9657600080fd5b505afa158015611faa573d6000803e3d6000fd5b505050506040513d601f19601f82011682018060405250810190611fce9190612ea0565b848381518110611fda57fe5b602090810291909101810151015250600101611f07565b509095945050505050565b7f00000000000000000000000000000000000000000000000000000000000000006001600160a01b0316331461204d5760405162461bcd60e51b81526004016120449061345b565b60405180910390fd5b600080546001600160a01b03199081166001600160a01b03998a1617909155600180548216978916979097179096556002805487169588169590951790945560038054861693871693909317909255600480548516918616919091179055600580548416918516919091179055600680549092169216919091179055565b6003546000906001600160a01b03838116911614156120f35750670de0b6b3a76400006124e9565b60055460009081906001600160a01b0316156121935760055460035460405163e6a4390560e01b81526001600160a01b039283169263e6a439059261214092899290911690600401613199565b60206040518083038186803b15801561215857600080fd5b505afa15801561216c573d6000803e3d6000fd5b505050506040513d601f19601f820116820180604052508101906121909190612eb8565b91505b6004546001600160a01b03161561222c576004805460035460405163e6a4390560e01b81526001600160a01b039283169363e6a43905936121d9938a9391169101613199565b60206040518083038186803b1580156121f157600080fd5b505afa158015612205573d6000803e3d6000fd5b505050506040513d601f19601f820116820180604052508101906122299190612eb8565b90505b6001600160a01b03821615801561224a57506001600160a01b038116155b1561225a576000925050506124e9565b600080806001600160a01b0385161561236657600080866001600160a01b0316630902f1ac6040518163ffffffff1660e01b815260040160606040518083038186803b1580156122a957600080fd5b505afa1580156122bd573d6000803e3d6000fd5b505050506040513d601f19601f820116820180604052508101906122e19190612fcf565b509150915081850194508084019350866001600160a01b0316630dfe16816040518163ffffffff1660e01b815260040160206040518083038186803b15801561232957600080fd5b505afa15801561233d573d6000803e3d6000fd5b505050506040513d601f19601f820116820180604052508101906123619190612eb8565b925050505b6001600160a01b0384161561247c57600080856001600160a01b0316630902f1ac6040518163ffffffff1660e01b815260040160606040518083038186803b1580156123b157600080fd5b505afa1580156123c5573d6000803e3d6000fd5b505050506040513d601f19601f820116820180604052508101906123e99190612fcf565b50958101959485019490925090506001600160a01b03831661247957856001600160a01b0316630dfe16816040518163ffffffff1660e01b815260040160206040518083038186803b15801561243e57600080fd5b505afa158015612452573d6000803e3d6000fd5b505050506040513d601f19601f820116820180604052508101906124769190612eb8565b92505b50505b6003546001600160a01b03828116911614156124c457826001600160701b0316826001600160701b0316670de0b6b3a764000002816124b757fe5b04955050505050506124e9565b816001600160701b0316836001600160701b0316670de0b6b3a764000002816124b757fe5b919050565b6006546001600160a01b031681565b60408051600481526024810182526020810180516001600160e01b03166306fdde0360e01b179052905160609160009183916001600160a01b038616916125449190613169565b600060405180830381855afa9150503d806000811461257f576040519150601f19603f3d011682016040523d82523d6000602084013e612584565b606091505b5091509150816125af57604051806040016040528060038152602001623f3f3f60e81b8152506125b8565b6125b881612914565b949350505050565b60408051600481526024810182526020810180516001600160e01b03166395d89b4160e01b179052905160609160009183916001600160a01b038616916125449190613169565b60408051600481526024810182526020810180516001600160e01b031663313ce56760e01b179052905160009182916060916001600160a01b0386169161264e9190613169565b600060405180830381855afa9150503d8060008114612689576040519150601f19603f3d011682016040523d82523d6000602084013e61268e565b606091505b50915091508180156126a1575080516020145b6126ac5760126125b8565b808060200190518101906125b891906130a5565b60408051600481526024810182526020810180516001600160e01b031663c45a015560e01b179052905160009182916060916001600160a01b038616916127079190613169565b600060405180830381855afa9150503d8060008114612742576040519150601f19603f3d011682016040523d82523d6000602084013e612747565b606091505b509150915081801561275a575080516020145b6127655760006125b8565b808060200190518101906125b89190612eb8565b60408051600481526024810182526020810180516001600160e01b0316633644e51560e01b179052905160009182916060916001600160a01b03861691612710916127c391613169565b6000604051808303818686fa925050503d80600081146127ff576040519150601f19603f3d011682016040523d82523d6000602084013e612804565b606091505b5091509150818015612817575080516020145b6128225760006125b8565b808060200190518101906125b89190612ea0565b6000806060846001600160a01b0316611388637ecebe008660405160240161285e9190613185565b6040516020818303038152906040529060e01b6020820180516001600160e01b0383818316178352505050506040516128979190613169565b6000604051808303818686fa925050503d80600081146128d3576040519150601f19603f3d011682016040523d82523d6000602084013e6128d8565b606091505b50915091508180156128eb575080516020145b6128f75760001961290b565b8080602001905181019061290b9190612ea0565b95945050505050565b6060604082511061293a57818060200190518101906129339190612f9d565b90506124e9565b815160201415612a595760005b60208160ff161080156129765750828160ff168151811061296457fe5b01602001516001600160f81b03191615155b1561298357600101612947565b60608160ff166001600160401b038111801561299e57600080fd5b506040519080825280601f01601f1916602001820160405280156129c9576020820181803683370190505b509050600091505b60208260ff16108015612a005750838260ff16815181106129ee57fe5b01602001516001600160f81b03191615155b15612a5057838260ff1681518110612a1457fe5b602001015160f81c60f81b818360ff1681518110612a2e57fe5b60200101906001600160f81b031916908160001a9053506001909101906129d1565b91506124e99050565b506040805180820190915260038152623f3f3f60e81b60208201526124e9565b6040518061018001604052806000815260200160008152602001600081526020016000815260200160008152602001600081526020016060815260200160008152602001600081526020016000815260200160008152602001600081525090565b604080518082019091526000808252602082015290565b604051806040016040528060008152602001600081525090565b604080516101408101825260008082526020820181905291810182905260608082018390526080820183905260a0820183905260c0820183905260e0820181905261010082015261012081019190915290565b604051806101400160405280600081526020016000815260200160008152602001600081526020016000815260200160008152602001600081526020016000815260200160008152602001600081525090565b6040518060a0016040528060006001600160a01b03168152602001600081526020016060815260200160608152602001600080191681525090565b6040518060a0016040528060006001600160a01b03168152602001600081526020016000815260200160008152602001600081525090565b60408051608081018252600080825260208201819052918101829052606081019190915290565b60008083601f840112612c5c578182fd5b5081356001600160401b03811115612c72578182fd5b6020830191508360208083028501011115610dc657600080fd5b600082601f830112612c9c578081fd5b81516001600160401b0380821115612cb2578283fd5b604051601f8301601f191681016020018281118282101715612cd2578485fd5b604052828152925082848301602001861015612ced57600080fd5b612cfe836020830160208801613674565b50505092915050565b600060208284031215612d18578081fd5b8135612d23816136a4565b9392505050565b600080600060408486031215612d3e578182fd5b8335612d49816136a4565b925060208401356001600160401b03811115612d63578283fd5b612d6f86828701612c4b565b9497909650939450505050565b600080600060408486031215612d3e578283fd5b60008060008060008060808789031215612da8578182fd5b8635612db3816136a4565b955060208701356001600160401b0380821115612dce578384fd5b612dda8a838b01612c4b565b909750955060408901359150612def826136a4565b90935060608801359080821115612e04578384fd5b50612e1189828a01612c4b565b979a9699509497509295939492505050565b60008060008060808587031215612e38578182fd5b8451612e43816136a4565b60208601516040870151606090970151919890975090945092505050565b60008060208385031215612e73578182fd5b82356001600160401b03811115612e88578283fd5b612e9485828601612c4b565b90969095509350505050565b600060208284031215612eb1578081fd5b5051919050565b600060208284031215612ec9578081fd5b8151612d23816136a4565b600080600060608486031215612ee8578081fd5b8335612ef3816136a4565b95602085013595506040909401359392505050565b600080600080600080600060e0888a031215612f22578485fd5b8735612f2d816136a4565b96506020880135612f3d816136a4565b95506040880135612f4d816136a4565b94506060880135612f5d816136a4565b93506080880135612f6d816136a4565b925060a0880135612f7d816136a4565b915060c0880135612f8d816136a4565b8091505092959891949750929550565b600060208284031215612fae578081fd5b81516001600160401b03811115612fc3578182fd5b6125b884828501612c8c565b600080600060608486031215612fe3578081fd5b8351612fee816136bc565b6020850151909350612fff816136bc565b604085015190925063ffffffff81168114613018578182fd5b809150509250925092565b60008060008060808587031215613038578182fd5b84519350602085015161304a816136a4565b60408601519093506001600160401b03811115613065578283fd5b61307187828801612c8c565b606096909601519497939650505050565b60008060408385031215613094578182fd5b505080516020909101519092909150565b6000602082840312156130b6578081fd5b815160ff81168114612d23578182fd5b6000815180845260208085019450808401835b8381101561310957815180516001600160a01b0316885283015183880152604090960195908201906001016130d9565b509495945050505050565b15159052565b6001600160a01b03169052565b6000815180845261313f816020860160208601613674565b601f01601f19169290920160200192915050565b80518252602090810151910152565b60ff169052565b6000825161317b818460208701613674565b9190910192915050565b6001600160a01b0391909116815260200190565b6001600160a01b0392831681529116602082015260400190565b602080825282518282018190526000919060409081850190868401855b8281101561321d57815180516001600160a01b0316855286810151878601528581015186860152606080820151908601526080908101519085015260a090930192908501906001016131d0565b5091979650505050505050565b602080825282518282018190526000919060409081850190868401855b8281101561321d57815180516001600160a01b03168552860151868501529284019290850190600101613247565b602080825282518282018190526000919060409081850190868401855b8281101561321d57815180516001600160a01b039081168652878201518116888701528682015116868601526060908101519085015260809093019290850190600101613292565b602080825282518282018190526000919060409081850190868401855b8281101561321d5761330a848351613153565b92840192908501906001016132f7565b60208082528251828201819052600091906040908185019080840286018301878501865b838110156133b757603f19898403018552815160a061335e85835161311a565b888201518986015287820151818987015261337b82870182613127565b915050606080830151868303828801526133958382613127565b608094850151979094019690965250509487019492509086019060010161333e565b509098975050505050505050565b602080825282518282018190526000919060409081850190868401855b8281101561321d5781518051855286810151878601528581015186860152606080820151908601526080808201519086015260a0808201519086015260c0808201519086015260e080820151908601526101008082015190860152610120908101519085015261014090930192908501906001016133e2565b6020808252818101527f4f776e61626c653a2063616c6c6572206973206e6f7420746865206f776e6572604082015260600190565b600060608083016134a18487613153565b604084810183905285519182905260809182860190602080820288018501818a01885b848110156135a157607f198b8403018652815161014081518552858201516134ee8787018261311a565b5088820151898601528a8201516135078c870182613114565b50898201516135188b87018261311a565b5060a08083015161352b8288018261311a565b505060c08083015161353f8288018261311a565b505060e080830151828288015261355883880182613127565b9250505061010080830151868303828801526135748382613127565b9250505061012080830151925061358d81870184613162565b5096850196935050908301906001016134c4565b50909b9a5050505050505050505050565b60006020825282516020830152602083015160408301526040830151606083015260608301516080830152608083015160a083015260a083015160c083015260c08301516101808060e085015261360d6101a08501836130c6565b60e086015161010086810191909152860151610120808701919091528601516101408087019190915286015161016080870191909152909501519301929092525090919050565b90815260200190565b9182526001600160a01b0316602082015260400190565b60005b8381101561368f578181015183820152602001613677565b8381111561369e576000848401525b50505050565b6001600160a01b03811681146136b957600080fd5b50565b6001600160701b03811681146136b957600080fdfea26469706673582212209cb0a43442102273221c2096c58fc7c4cc486b6612517ff8fc873e7e61ce32f464736f6c634300060c0033",
  "linkReferences": {},
  "deployedLinkReferences": {}
}