{
  "_format": "hh-sol-artifact-1",
  "contractName": "SimpleRewarderPerSec",
  "sourceName": "contracts/rewarders/SimpleRewarderPerSec.sol",
  "abi": [
    {
      "inputs": [
        {
          "internalType": "contract IERC20",
          "name": "_rewardToken",
          "type": "address"
        },
        {
          "internalType": "contract IERC20",
          "name": "_lpToken",
          "type": "address"
        },
        {
          "internalType": "uint256",
          "name": "_tokenPerSec",
          "type": "uint256"
        },
        {
          "internalType": "contract IMasterChefJoeV2",
          "name": "_MCV2",
          "type": "address"
        }
      ],
      "stateMutability": "nonpayable",
      "type": "constructor"
    },
    {
      "anonymous": false,
      "inputs": [
        {
          "indexed": true,
          "internalType": "address",
          "name": "user",
          "type": "address"
        },
        {
          "indexed": false,
          "internalType": "uint256",
          "name": "amount",
          "type": "uint256"
        }
      ],
      "name": "OnReward",
      "type": "event"
    },
    {
      "anonymous": false,
      "inputs": [
        {
          "indexed": true,
          "internalType": "address",
          "name": "previousOwner",
          "type": "address"
        },
        {
          "indexed": true,
          "internalType": "address",
          "name": "newOwner",
          "type": "address"
        }
      ],
      "name": "OwnershipTransferred",
      "type": "event"
    },
    {
      "anonymous": false,
      "inputs": [
        {
          "indexed": false,
          "internalType": "uint256",
          "name": "oldRate",
          "type": "uint256"
        },
        {
          "indexed": false,
          "internalType": "uint256",
          "name": "newRate",
          "type": "uint256"
        }
      ],
      "name": "RewardRateUpdated",
      "type": "event"
    },
    {
      "inputs": [],
      "name": "MC_V2",
      "outputs": [
        {
          "internalType": "contract IMasterChefJoeV2",
          "name": "",
          "type": "address"
        }
      ],
      "stateMutability": "view",
      "type": "function"
    },
    {
      "inputs": [],
      "name": "claimOwnership",
      "outputs": [],
      "stateMutability": "nonpayable",
      "type": "function"
    },
    {
      "inputs": [],
      "name": "emergencyWithdraw",
      "outputs": [],
      "stateMutability": "nonpayable",
      "type": "function"
    },
    {
      "inputs": [],
      "name": "lpToken",
      "outputs": [
        {
          "internalType": "contract IERC20",
          "name": "",
          "type": "address"
        }
      ],
      "stateMutability": "view",
      "type": "function"
    },
    {
      "inputs": [
        {
          "internalType": "address",
          "name": "_user",
          "type": "address"
        },
        {
          "internalType": "uint256",
          "name": "_lpAmount",
          "type": "uint256"
        }
      ],
      "name": "onJoeReward",
      "outputs": [],
      "stateMutability": "nonpayable",
      "type": "function"
    },
    {
      "inputs": [],
      "name": "owner",
      "outputs": [
        {
          "internalType": "address",
          "name": "",
          "type": "address"
        }
      ],
      "stateMutability": "view",
      "type": "function"
    },
    {
      "inputs": [],
      "name": "pendingOwner",
      "outputs": [
        {
          "internalType": "address",
          "name": "",
          "type": "address"
        }
      ],
      "stateMutability": "view",
      "type": "function"
    },
    {
      "inputs": [
        {
          "internalType": "address",
          "name": "_user",
          "type": "address"
        }
      ],
      "name": "pendingTokens",
      "outputs": [
        {
          "internalType": "uint256",
          "name": "pending",
          "type": "uint256"
        }
      ],
      "stateMutability": "view",
      "type": "function"
    },
    {
      "inputs": [],
      "name": "poolInfo",
      "outputs": [
        {
          "internalType": "uint256",
          "name": "accTokenPerShare",
          "type": "uint256"
        },
        {
          "internalType": "uint256",
          "name": "lastRewardTimestamp",
          "type": "uint256"
        }
      ],
      "stateMutability": "view",
      "type": "function"
    },
    {
      "inputs": [],
      "name": "rewardToken",
      "outputs": [
        {
          "internalType": "contract IERC20",
          "name": "",
          "type": "address"
        }
      ],
      "stateMutability": "view",
      "type": "function"
    },
    {
      "inputs": [
        {
          "internalType": "uint256",
          "name": "_tokenPerSec",
          "type": "uint256"
        }
      ],
      "name": "setRewardRate",
      "outputs": [],
      "stateMutability": "nonpayable",
      "type": "function"
    },
    {
      "inputs": [],
      "name": "tokenPerSec",
      "outputs": [
        {
          "internalType": "uint256",
          "name": "",
          "type": "uint256"
        }
      ],
      "stateMutability": "view",
      "type": "function"
    },
    {
      "inputs": [
        {
          "internalType": "address",
          "name": "newOwner",
          "type": "address"
        },
        {
          "internalType": "bool",
          "name": "direct",
          "type": "bool"
        },
        {
          "internalType": "bool",
          "name": "renounce",
          "type": "bool"
        }
      ],
      "name": "transferOwnership",
      "outputs": [],
      "stateMutability": "nonpayable",
      "type": "function"
    },
    {
      "inputs": [],
      "name": "updatePool",
      "outputs": [
        {
          "components": [
            {
              "internalType": "uint256",
              "name": "accTokenPerShare",
              "type": "uint256"
            },
            {
              "internalType": "uint256",
              "name": "lastRewardTimestamp",
              "type": "uint256"
            }
          ],
          "internalType": "struct SimpleRewarderPerSec.PoolInfo",
          "name": "pool",
          "type": "tuple"
        }
      ],
      "stateMutability": "nonpayable",
      "type": "function"
    },
    {
      "inputs": [
        {
          "internalType": "address",
          "name": "",
          "type": "address"
        }
      ],
      "name": "userInfo",
      "outputs": [
        {
          "internalType": "uint256",
          "name": "amount",
          "type": "uint256"
        },
        {
          "internalType": "uint256",
          "name": "rewardDebt",
          "type": "uint256"
        }
      ],
      "stateMutability": "view",
      "type": "function"
    }
  ],
  "bytecode": "0x60e06040523480156200001157600080fd5b506040516200134b3803806200134b83398101604081905262000034916200016d565b600080546001600160a01b0319163390811782556040519091907f8be0079c531659141344cd1fd0a4f28419497f9722a3daafe3b4186f6b6457e0908290a362000089846200016760201b62000ac21760201c565b620000b15760405162461bcd60e51b8152600401620000a89062000225565b60405180910390fd5b620000c7836200016760201b62000ac21760201c565b620000e65760405162461bcd60e51b8152600401620000a89062000277565b620000fc816200016760201b62000ac21760201c565b6200011b5760405162461bcd60e51b8152600401620000a890620001c8565b6001600160601b0319606094851b811660805292841b831660a05260059190915590911b1660c052604080518082019091526000808252426020909201829052600255600355620002de565b3b151590565b6000806000806080858703121562000183578384fd5b84516200019081620002c5565b6020860151909450620001a381620002c5565b604086015160608701519194509250620001bd81620002c5565b939692955090935050565b60208082526035908201527f636f6e7374727563746f723a204d6173746572436865664a6f655632206d757360408201527f7420626520612076616c696420636f6e74726163740000000000000000000000606082015260800190565b60208082526032908201527f636f6e7374727563746f723a2072657761726420746f6b656e206d7573742062604082015271194818481d985b1a590818dbdb9d1c9858dd60721b606082015260800190565b6020808252602e908201527f636f6e7374727563746f723a204c5020746f6b656e206d75737420626520612060408201526d1d985b1a590818dbdb9d1c9858dd60921b606082015260800190565b6001600160a01b0381168114620002db57600080fd5b50565b60805160601c60a05160601c60c05160601c61100562000346600039806102fc52806105cf528061072752806109ac5250806105fc52806106f8528061097f5250806103b9528061046a52806104a3528061086052806109045280610aa052506110056000f3fe608060405234801561001057600080fd5b50600436106100f55760003560e01c80635fcbd28511610097578063db2e21bc11610066578063db2e21bc146101bc578063e30c3978146101c4578063e3161ddd146101cc578063f7c618c1146101e1576100f5565b80635fcbd285146101865780638da5cb5b1461018e5780639e447fc614610196578063c031a66f146101a9576100f5565b80634e71e0c8116100d35780634e71e0c81461014c57806350fd1f3e1461015457806353c02f7b146101695780635a2f3d091461017e576100f5565b8063078dfbe7146100fa5780631959a0021461010f5780631a7af8b014610139575b600080fd5b61010d610108366004610c99565b6101e9565b005b61012261011d366004610c77565b6102d8565b604051610130929190610fb0565b60405180910390f35b61010d610147366004610ce2565b6102f1565b61010d61053a565b61015c6105c7565b6040516101309190610fa7565b6101716105cd565b6040516101309190610d91565b6101226105f1565b6101716105fa565b61017161061e565b61010d6101a4366004610d28565b61062d565b61015c6101b7366004610c77565b6106a6565b61010d610830565b61017161092d565b6101d461093c565b6040516101309190610f90565b610171610a9e565b6000546001600160a01b0316331461021c5760405162461bcd60e51b815260040161021390610eef565b60405180910390fd5b81156102b7576001600160a01b0383161515806102365750805b6102525760405162461bcd60e51b815260040161021390610e48565b600080546040516001600160a01b03808716939216917f8be0079c531659141344cd1fd0a4f28419497f9722a3daafe3b4186f6b6457e091a3600080546001600160a01b0385166001600160a01b0319918216179091556001805490911690556102d3565b600180546001600160a01b0319166001600160a01b0385161790555b505050565b6004602052600090815260409020805460019091015482565b336001600160a01b037f000000000000000000000000000000000000000000000000000000000000000016146103395760405162461bcd60e51b815260040161021390610dbe565b61034161093c565b5061034a610c46565b5060408051808201825260025481526003546020808301919091526001600160a01b03851660009081526004909152918220805491929091156104cc576001820154835183546103b3929164e8d4a51000916103a591610ac8565b816103ac57fe5b0490610b0b565b905060007f00000000000000000000000000000000000000000000000000000000000000006001600160a01b03166370a08231306040518263ffffffff1660e01b81526004016104039190610d91565b60206040518083038186803b15801561041b57600080fd5b505afa15801561042f573d6000803e3d6000fd5b505050506040513d601f19601f820116820180604052508101906104539190610d40565b905080821115610496576104916001600160a01b037f0000000000000000000000000000000000000000000000000000000000000000168783610b33565b6104ca565b6104ca6001600160a01b037f0000000000000000000000000000000000000000000000000000000000000000168784610b33565b505b838255825164e8d4a51000906104e3908690610ac8565b816104ea57fe5b0460018301556040516001600160a01b038616907fd1072bb52c3131d0c96197b73fb8a45637e30f8b6664fc142310cc9b242859b49061052b908490610fa7565b60405180910390a25050505050565b6001546001600160a01b03163381146105655760405162461bcd60e51b815260040161021390610f24565b600080546040516001600160a01b03808516939216917f8be0079c531659141344cd1fd0a4f28419497f9722a3daafe3b4186f6b6457e091a3600080546001600160a01b039092166001600160a01b0319928316179055600180549091169055565b60055481565b7f000000000000000000000000000000000000000000000000000000000000000081565b60025460035482565b7f000000000000000000000000000000000000000000000000000000000000000081565b6000546001600160a01b031681565b6000546001600160a01b031633146106575760405162461bcd60e51b815260040161021390610eef565b61065f61093c565b5060058054908290556040517fc390a98ace15a7bb6bab611eedfdbb2685043b241a869420043cdfb23ccfee509061069a9083908590610fb0565b60405180910390a15050565b60006106b0610c46565b506040805180820182526002548082526003546020808401919091526001600160a01b03808716600090815260049283905285812095516370a0823160e01b815294959490927f0000000000000000000000000000000000000000000000000000000000000000909216916370a082319161074d917f00000000000000000000000000000000000000000000000000000000000000009101610d91565b60206040518083038186803b15801561076557600080fd5b505afa158015610779573d6000803e3d6000fd5b505050506040513d601f19601f8201168201806040525081019061079d9190610d40565b600354909150421180156107b057508015155b15610809576003546000906107c6904290610b0b565b905060006107df60055483610ac890919063ffffffff16565b9050610804836107f48364e8d4a51000610ac8565b816107fb57fe5b86919004610c21565b935050505b60018301548354610826919064e8d4a51000906103a59086610ac8565b9695505050505050565b6000546001600160a01b0316331461085a5760405162461bcd60e51b815260040161021390610eef565b61092b337f00000000000000000000000000000000000000000000000000000000000000006001600160a01b03166370a08231306040518263ffffffff1660e01b81526004016108aa9190610d91565b60206040518083038186803b1580156108c257600080fd5b505afa1580156108d6573d6000803e3d6000fd5b505050506040513d601f19601f820116820180604052508101906108fa9190610d40565b6001600160a01b037f0000000000000000000000000000000000000000000000000000000000000000169190610b33565b565b6001546001600160a01b031681565b610944610c46565b5060408051808201909152600254815260035460208201819052421115610a9b576040516370a0823160e01b81526000906001600160a01b037f000000000000000000000000000000000000000000000000000000000000000016906370a08231906109d4907f000000000000000000000000000000000000000000000000000000000000000090600401610d91565b60206040518083038186803b1580156109ec57600080fd5b505afa158015610a00573d6000803e3d6000fd5b505050506040513d601f19601f82011682018060405250810190610a249190610d40565b90508015610a89576000610a45836020015142610b0b90919063ffffffff16565b90506000610a5e60055483610ac890919063ffffffff16565b9050610a8483610a738364e8d4a51000610ac8565b81610a7a57fe5b8651919004610c21565b845250505b50426020820181905281516002556003555b90565b7f000000000000000000000000000000000000000000000000000000000000000081565b3b151590565b600082610ad757506000610b05565b82820282848281610ae457fe5b0414610b025760405162461bcd60e51b815260040161021390610eae565b90505b92915050565b600082821115610b2d5760405162461bcd60e51b815260040161021390610e77565b50900390565b60006060846001600160a01b031663a9059cbb8585604051602401610b59929190610da5565b6040516020818303038152906040529060e01b6020820180516001600160e01b038381831617835250505050604051610b929190610d58565b6000604051808303816000865af19150503d8060008114610bcf576040519150601f19603f3d011682016040523d82523d6000602084013e610bd4565b606091505b5091509150818015610bfe575080511580610bfe575080806020019051810190610bfe9190610d0c565b610c1a5760405162461bcd60e51b815260040161021390610f59565b5050505050565b600082820183811015610b025760405162461bcd60e51b815260040161021390610e11565b604051806040016040528060008152602001600081525090565b80356001600160a01b0381168114610b0557600080fd5b600060208284031215610c88578081fd5b610c928383610c60565b9392505050565b600080600060608486031215610cad578182fd5b610cb78585610c60565b92506020840135610cc781610fbe565b91506040840135610cd781610fbe565b809150509250925092565b60008060408385031215610cf4578182fd5b610cfe8484610c60565b946020939093013593505050565b600060208284031215610d1d578081fd5b8151610b0281610fbe565b600060208284031215610d39578081fd5b5035919050565b600060208284031215610d51578081fd5b5051919050565b60008251815b81811015610d785760208186018101518583015201610d5e565b81811115610d865782828501525b509190910192915050565b6001600160a01b0391909116815260200190565b6001600160a01b03929092168252602082015260400190565b60208082526033908201527f6f6e6c794d4356323a206f6e6c79204d6173746572436865662056322063616e6040820152721031b0b636103a3434b990333ab731ba34b7b760691b606082015260800190565b6020808252601b908201527f536166654d6174683a206164646974696f6e206f766572666c6f770000000000604082015260600190565b6020808252601590820152744f776e61626c653a207a65726f206164647265737360581b604082015260600190565b6020808252601e908201527f536166654d6174683a207375627472616374696f6e206f766572666c6f770000604082015260600190565b60208082526021908201527f536166654d6174683a206d756c7469706c69636174696f6e206f766572666c6f6040820152607760f81b606082015260800190565b6020808252818101527f4f776e61626c653a2063616c6c6572206973206e6f7420746865206f776e6572604082015260600190565b6020808252818101527f4f776e61626c653a2063616c6c657220213d2070656e64696e67206f776e6572604082015260600190565b6020808252601a908201527f5361666545524332303a205472616e73666572206661696c6564000000000000604082015260600190565b815181526020918201519181019190915260400190565b90815260200190565b918252602082015260400190565b8015158114610fcc57600080fd5b5056fea2646970667358221220615e6c45ed4f8d18f0b923e417eaed24ce3c7e3a2af33a328a161c805798aad964736f6c634300060c0033",
  "linkReferences": {},
  "deployedLinkReferences": {}
}